:1000000000180020E90400002D0500003105000063
:1000100000000000000000000000000000000000E0
:100020000000000000000000000000003505000096
:100030000000000000000000390500003D05000040
:100040004105000045050000490500004D05000080
:1000500029050000290500002905000029050000E8
:100060005105000055050000590500005D05000020
:100070006105000065050000690500002905000014
:1000800029050000290500002905000029050000B8
:100090002905000029050000290500006D05000064
:1000A0002905000029050000290500002905000098
:1000B0002905000029050000290500002905000088
:10040000FFFFFFFFFFFFFFFFFFFFFFFFFEFFFFFFFD
:1004100010B5064C2378002B07D1054B002B02D0DA
:10042000044800E000BF0123237010BD64F8FF1FE3
:10043000000000007C15000008B5084B002B03D01D
:100440000748084900E000BF07480368002B03D0B5
:10045000064B002B00D0984708BDC04600000000A6
:100460007C15000068F8FF1F60F8FF1F0000000007
:10047000164B002B00D1144B9D46402292029A1A33
:10048000924600218B460F461348144A121A00F078
:10049000E1FE0F4B002B00D098470E4B002B00D0F5
:1004A00098470020002104000D000D48002802D0CC
:1004B0000C4800E000BF00F0A7FE2000290000F07B
:1004C00071FC00F08BFEC046000008000018002000
:1004D000000000000000000064F8FF1FE4F8FF1FA8
:1004E000000000000000000072B6084808490160E2
:1004F000084880470849094A094B9B1A03DD043B19
:10050000C858D050FBDC62B60648804708ED00E0D2
:1005100000000000710C0000A415000000F8FF1F8F
:1005200064F8FF1F7104000011480047114800479C
:10053000114800471148004711480047114800473B
:10054000114800471148004711480047114800472B
:10055000114800471148004711480047114800471B
:10056000114800471148004711480047114800470B
:10057000290500002D0500003105000035050000AB
:10058000390500003D050000CD0E0000E50E00001D
:10059000FD0E0000150F0000810F0000A10F0000EC
:1005A00061100000A9100000C10F0000F110000050
:1005B00015110000E50F0000002934D001230022AE
:1005C00010B488422CD301242407A14204D28142D2
:1005D00002D209011B01F8E7E400A14204D28142E2
:1005E00002D249005B00F8E7884201D3401A1A435F
:1005F0004C08A04202D3001B5C0822438C08A04296
:1006000002D3001B9C082243CC08A04202D3001B4B
:10061000DC082243002803D01B0901D00909E3E7C5
:10062000101C10BC7047002801D00020C04307B444
:10063000024802A14018029003BDC046D900000044
:100640000029F0D003B5FFF7B9FF0EBC4243891A69
:100650001847C046002941D010B4041C4C40A446A1
:1006600001230022002900D54942002800D540423C
:1006700088422CD301242407A14204D2814202D211
:1006800009011B01F8E7E400A14204D2814202D231
:1006900049005B00F8E7884201D3401A1A434C082E
:1006A000A04202D3001B5C0822438C08A04202D364
:1006B000001B9C082243CC08A04202D3001BDC088C
:1006C0002243002803D01B0901D00909E3E7101CCD
:1006D0006446002C00D5404210BC7047002806D06C
:1006E00003DB0020C043400801E08020000607B47F
:1006F000024802A14018029003BDC0461900000044
:100700000029EBD003B5FFF7A7FF0EBC4243891ABF
:100710001847C0467047C0460FB480B582B000AFDE
:100720000D4B1B78002B02D101235B420DE03B1CDB
:1007300014333B6009493A693B68081C111C1A1CB8
:1007400000F0DAF8031C7B607B68181CBD4602B021
:1007500080BC08BC04B0184780F8FF1F6107000088
:1007600090B583B000AF78600A4B1B78002B02D1A4
:1007700001235B4209E0074B9C68064B5A683B1D0E
:10078000101C191C0122A0470123181CBD4603B0F0
:1007900090BDC04680F8FF1F80B586B000AFB9603D
:1007A0007A603B603B1C0F33021C1A70BB687B6194
:1007B0000EE03B1C0F3300229A563B6A101C9847F0
:1007C0003B681B685A1C3B681A607B6901337B617C
:1007D0007A697B689A42ECDBBD4606B080BDC046B4
:1007E00080B58CB000AFF860B9607A603B600023E0
:1007F000FB61FB68BB61BB695A1CBA6100221A70BD
:100800007B68002B36D0BB681B68FB62FB6A002B41
:1008100007D1BB6930221A70FB690133FB61FB69A8
:1008200066E023E0F86A3968FFF714FF031C7B6178
:100830007B693A685343FA6AD31ABB62BB6A002BDE
:1008400006DABB6A3B623B6A3022D31ABB6202E023
:10085000BB6A3033BB627B69FB62BB695A1CBA61FD
:10086000BA6AD2B21A70FB690133FB61FB6A002BD2
:10087000D8D13CE0BB681B687B627B6A002B07D148
:10088000BB6930221A70FB690133FB61FB692FE001
:100890002AE03B68786A191CFFF78EFE031C3B6157
:1008A0003B683A6953437A6AD31A3B623B6A092B25
:1008B00003D83B6A30333B620BE03B1C38331B7878
:1008C000002B01D0412300E061233A6A9B180A3BC8
:1008D0003B623B697B62BB695A1CBA613A6AD2B21D
:1008E0001A70FB690133FB617B6A002BD1D1FB6974
:1008F000181CBD460CB080BD80B59CB002AFF8603E
:10090000B9607A6000233B660023FB650023BB616E
:100910003B1C4A3300221A7000233B61BB687B6694
:1009200099E17B6C252B07D07A6CFB68101C9847EB
:10093000BB690133BB618BE13B1C4B3301221A7055
:1009400000237B650023BB651CE07B6E01337B6667
:100950007B6E1B785BB27B647B6C2F2B0DDD7B6C1D
:10096000392B0ADC7A6D131C9B009B185B001A1C48
:100970007B6CD318303B7B6504E07B6E013B7B6670
:100980000123BB65BB6D002BDFD006233B657B6E6F
:1009900001337B667B6E1B785BB22E2B25D1002347
:1009A0003B650023BB651CE07B6E01337B667B6E81
:1009B0001B785BB27B647B6C2F2B0DDD7B6C392B42
:1009C0000ADC3A6D131C9B009B185B001A1C7B6CA5
:1009D000D318303B3B6504E07B6E013B7B66012313
:1009E000BB65BB6D002BDFD002E07B6E013B7B66FD
:1009F0007B6E01337B667B6E1B785BB27B647B6CAA
:100A0000642B1BD07B6C692B18D07B6C662B15D0AC
:100A10007B6C462B12D07B6C782B0FD07B6C582BC9
:100A20000CD07B6C6F2B09D07B6C622B06D07B6C5F
:100A3000702B03D07B6C752B00D0C5E07B6C642BD6
:100A400002D07B6C692B19D17B681A1D7A601B68F8
:100A50007B613A1C1C323B1C1433391C4B31097826
:100A60000091101C191C01220A23FFF7B9FE031C78
:100A7000FB653A1C1C32FB6DD3183B667B6C582B14
:100A800002D07B6C782B20D17B6C782B03D13B1C64
:100A90004B3300221A707B681A1D7A601B683B6119
:100AA0003A1C1C323B1C1033391C4B310978009125
:100AB000101C191C00221023FFF792FE031CFB657B
:100AC0003A1C1C32FB6DD3183B667B6C6F2B08D134
:100AD0007B681A1D7A601B683B613B1C4A33082205
:100AE0001A707B6C622B0DD17B681A1D7A601B68B3
:100AF0003B613B1C4A3302221A703A1C1C32FB6DCC
:100B0000D3183B667B6C702B0DD17B681A1D7A6005
:100B10001B683B613B1C4A3310221A703A1C1C3282
:100B2000FB6DD3183B667B6C752B0DD17B681A1D52
:100B30007A601B683B613B1C4A330A221A703A1CDC
:100B40001C32FB6DD3183B667B6C6F2B08D07B6C23
:100B5000622B05D07B6C702B02D07B6C752B16D171
:100B60003B1C4A331B78391C1C313A1C1032381C90
:100B70004B3000780090081C111C0022FFF730FE5B
:100B8000031CFB653A1C1C32FB6DD3183B667A6D67
:100B9000F96D3B1C1833F86800902020FFF7FCFD2E
:100BA0003B6E002B0FD00AE03B6E5A1E3A661B7854
:100BB0005AB2FB68101C9847BB690133BB613B6E9E
:100BC0001B78002BF0D143E07B6C632B0ED17B684C
:100BD0001A1D7A601B68DBB25BB23B643A6CFB683F
:100BE000101C9847BB690133BB6131E07B6C732BF0
:100BF00027D17B681A1D7A601B68FB64FB6C002B95
:100C000026D0FB6C181C00F02DFB031CFB657A6DD5
:100C1000F96D3B1C1833F86800902020FFF7BCFDED
:100C20000AE0FB6C5A1CFA641B785AB2FB68101C71
:100C30009847BB690133BB61FB6C1B78002BF0D17B
:100C400006E07A6CFB68101C9847BB690133BB61F6
:100C50007B6E01337B667B6E1B785BB27B647B6C47
:100C6000002B00D05DE6BB69181CBD461AB080BDE4
:100C700080B500AF0A4B9B78DBB21A1C08231340E7
:100C800007D0074B064A9278D2B208210A43D2B263
:100C90009A70044A88235B010021D150BD4680BD73
:100CA00000D007400070044080B584B000AFF86009
:100CB000B960FB1D1A70FB1D1B78002B08D1BB68A7
:100CC0000122111C99400B1C1A1CFB689A6007E05A
:100CD000BB680122111C99400B1C1A1CFB685A604E
:100CE000BD4604B080BDC04680B582B000AF78601C
:100CF00039607B683A68DA60BD4602B080BDC046A4
:100D000080B584B000AFF860B9607A607B68002B72
:100D100006D11649164A174B081C4B2100F062F801
:100D20007B681B78002B0BD1FB685B69BA680121DB
:100D3000081C9040021CD2431A40FB685A6112E022
:100D40007B685B78F968BA68081C111C1A1CFFF7ED
:100D5000ABFFFB685A69BB680121081C9840031C63
:100D60001A43FB685A61BD4604B080BD781200008A
:100D700008150000B812000080B582B000AF002353
:100D80007B6000237B6003E0C0467B6801337B60AF
:100D90007A68034B9A42F7D9BD4602B080BDC0467F
:100DA000FF340C0080B582B000AF3B1D01221A70E9
:100DB0003B1D00225A7000F0FFF900F0C1F900F06D
:100DC000BBF9074A3B1D101C00211A1CFFF798FFB6
:100DD000FFF7D2FF024B181C0121FFF785FFF7E751
:100DE00040F00F4090B587B002AFF860B9607A600C
:100DF0003B6005483968FA68BB687C680094FFF777
:100E00008BFC00BEFDE7C046E812000080B584B050
:100E100000AFF860B9607A60BB68032B07D910484F
:100E2000DA23191CFF310F4A0F4BFFF7DBFF7B68FA
:100E3000002B12D0F968BA6884235B0012018A186B
:100E4000D3181B68802252041A43F868B9688423B7
:100E50005B0009014118CB181A60BD4604B080BD83
:100E600028130000281500004013000080B582B050
:100E700000AF78607B68002B06D111488A235900A7
:100E8000104A114BFFF7AEFF7B6819687B681B792E
:100E90001A1C80235B04081C111C1A1CFFF7B6FFE8
:100EA0007B689B68002B07D07B689A687B68DB684F
:100EB0007968081C191C9047BD4602B080BDC04629
:100EC0006C13000018150000BC13000080B500AFC3
:100ED000034B1B68181CFFF7C9FFBD4680BDC04609
:100EE00090F8FF1F80B500AF034B5B68181CFFF73D
:100EF000BDFFBD4680BDC04690F8FF1F80B500AF66
:100F0000034B9B68181CFFF7B1FFBD4680BDC04670
:100F100090F8FF1F80B500AF034BDB68181CFFF78C
:100F2000A5FFBD4680BDC04690F8FF1F80B582B0CA
:100F300000AF786039607B68DB78DBB21A1C102365
:100F4000134006D17B689B78DBB21A1C2023134028
:100F500007D0094B1B6879683A68081C111C984730
:100F600006E0064B1B6879683A68081C111C984714
:100F7000BD4602B080BDC046A8F8FF1FACF8FF1FF9
:100F800080B500AF044B1B68044A101C191CFFF706
:100F9000CDFFBD4680BDC046A0F8FF1F00600640E3
:100FA00080B500AF044B5B68044A101C191CFFF7A6
:100FB000BDFFBD4680BDC046A0F8FF1F00700640C3
:100FC00080B500AF044B1A68044B1B680449081C29
:100FD000191C9047BD4680BDB4F8FF1FB0F8FF1F35
:100FE00000A0064080B500AF194B5B68002B15D000
:100FF000184A8023D25880239B02134006D1154AF9
:101000008023D2588023DB02134007D0124B1A688A
:101010000F4B5B680F49081C191C90470C4B1B6851
:10102000002B13D00B4B1A6880239B02134005D171
:10103000084B1A688023DB02134007D0074B1A685D
:10104000034B1B680349081C191C9047BD4680BD13
:10105000DCF8FF1F00F00240BCF8FF1FB8F8FF1FCC
:1010600080B500AF094B1B68002B05D10848094922
:10107000094A0A4BFFF7B6FE094B1A68034B1B6877
:101080000849081C191C9047BD4680BDC0F8FF1FC9
:10109000681400009E03000044150000E8140000DE
:1010A000C8F8FF1F0060074080B500AF094B5B68C0
:1010B000002B05D108480949094A0A4BFFF792FE5F
:1010C000094B1A68034B5B680849081C191C9047B8
:1010D000BD4680BDC0F8FF1F68140000A6030000D5
:1010E0005C150000F8140000C8F8FF1F00700740EE
:1010F00080B500AF044B1A68044B5B680449081CB8
:10110000191C9047BD4680BDD8F8FF1FCCF8FF1FC3
:1011100000B0064080B500AF044B1A68044B9B68D2
:101120000449081C191C9047BD4680BDD8F8FF1F14
:10113000CCF8FF1F00C0064080B500AFBD4680BDA3
:1011400080B500AFBD4680BD90B585B000AF78607A
:101150007B681B0C084A9B18FB60FB68FA681168E7
:101160007A681204120C0120041C9440221C0A43C9
:101170001A60BD4605B090BD0070044080B584B0D3
:1011800000AFF860B960FB1D1A70FB68BA68920086
:10119000D258084B1A40FB1D1B781902E023DB00D4
:1011A0000B40111C1943FB68BA689200D150BD4630
:1011B00004B080BDFFF8FFFF80B500AF054B181CE1
:1011C000FFF7C2FF044B181C00210122FFF7D6FFD6
:1011D000BD4680BD0A00381000A00440084B10B581
:1011E000041C002B02D0002100E000BF054B186852
:1011F000836A002B00D09847201C00F03BF8C046C3
:10120000000000007815000070B50E4B0E4D002454
:10121000ED1AAD101E1CAC4204D0A300F358984741
:101220000134F8E700F0AAF9084B094D0024ED1A43
:10123000AD101E1CAC4204D0A300F35898470134F3
:10124000F8E770BD9C1500009C1500009C1500007F
:10125000A0150000031C8218934202D019700133BC
:10126000FAE770470023C25C0133002AFBD1581E05
:1012700070470000FEE7C0462E2E2F647269766527
:1012800072732F66736C5F6770696F2E6300000066
:10129000696E7374616E6365203C2046534C5F46F3
:1012A0004541545552455F534F435F4750494F5F47
:1012B000434F554E54000000636F6E66696700002F
:1012C000696E7374616E6365203C2046534C5F46C3
:1012D0004541545552455F534F435F464750494F30
:1012E0005F434F554E5400004153534552542045DF
:1012F00052524F52202220257320223A2066696CD8
:10130000652022257322204C696E652022256422E7
:101310002066756E6374696F6E206E616D65202244
:10132000257322200A0000002E2E2F647269766534
:1013300072732F66736C5F646D612E68000000002D
:101340006368616E6E656C203C2046534C5F464579
:1013500041545552455F444D414D55585F4D4F44A2
:10136000554C455F4348414E4E454C002E2E2F6450
:101370007269766572732F66736C5F646D612E633C
:1013800000000000696E7374616E6365203C204646
:10139000534C5F464541545552455F534F435F445C
:1013A0004D415F434F554E5400000000636F6E6621
:1013B000696720213D204E554C4C000068616E64E9
:1013C0006C6520213D204E554C4C000073726341EA
:1013D00064647220213D204E554C4C00646573744A
:1013E0004164647220213D204E554C4C00000000A9
:1013F000287372635769647468203D3D2031552914
:10140000207C7C20287372635769647468203D3D9A
:1014100020325529207C7C202873726357696474BC
:1014200068203D3D20345529000000002864657384
:10143000745769647468203D3D20315529207C7CB7
:101440002028646573745769647468203D3D2032B8
:101450005529207C7C2028646573745769647468FE
:10146000203D3D20345529002E2E2F64726976656B
:1014700072732F66736C5F7370692E6300000000D7
:10148000696E7374616E6365203C2046534C5F4601
:101490004541545552455F534F435F5350495F4355
:1014A0004F554E5400000000636F6E66696720263A
:1014B0002620737263436C6F636B5F487A00000091
:1014C000636F6E66696700007866657200000000F1
:1014D00068616E646C65000068616E646C652026EE
:1014E0002620786665720000735F73706948616ECC
:1014F000646C655B305D0000735F73706948616E9A
:10150000646C655B315D00004750494F5F50696E08
:10151000496E697400000000444D415F48616E648B
:101520006C65495251000000444D415F436C656158
:10153000724368616E6E656C537461747573466C4A
:1015400061677300535049305F4472697665724930
:10155000525148616E646C6572000000535049310D
:101560005F44726976657249525148616E646C6578
:10157000720000004300000000F8FF1FF8B5C046ED
:10158000F8BC08BC9E467047F8B5C046F8BC08BC1D
:041590009E467047BC
:08159400DCEEFF7F0100000006
:04159C00390400000E
:0415A0001104000032
:1015A4000000000000000000000000000000000037
:1015B4000000000000000000000000000000000027
:1015C400741500000000000000000000000000008E
:1015D4000000000000000000000000000000000007
:1015E40000000000000000000000000000000000F7
:1015F40000000000000000000000000000000000E7
:0416040000000000E2
:04000003000004E90C
:00000001FF
